:100000000C942A000C9434000C9434000C943400AA
:100010000C9434000C9434000C9434000C94340090
:100020000C9434000C9434000C9434000C94340080
:100030000C9434000C9434000C9434000C94340070
:100040000C9434000C9434000C9434000C94340060
:100050000C94340011241FBECFE5D8E0DEBFCDBF25
:100060000E9436000C944D000C9400008FEF87BB6B
:1000700018BA28E833E161E048EC50E005C0CA0155
:100080000197F1F72150304021153105C1F788B3B0
:0E009000862788BB28E833E1F2CFF894FFCF33
:00000001FF
