:100000000C942A000C9447000C9447000C94470071
:100010000C9447000C9447000C9447000C94470044
:100020000C9447000C9447000C9447000C94470034
:100030000C9447000C9447000C9447000C94470024
:100040000C9447000C9447000C9447000C94470014
:100050000C94470011241FBECFE5D8E0DEBFCDBF12
:1000600012E0A0E6B0E0E6E0F8E002C005900D92F4
:10007000A235B107D9F712E0A2E5B2E001C01D92A6
:10008000AC35B107E1F70E9449000C9401040C94CF
:1000900000008F929F92AF92BF92CF92DF92EF9229
:1000A000FF920F931F93DF93CF93CDB7DEB72997BE
:1000B0000FB6F894DEBF0FBECDBFDE011596E2E7A6
:1000C000F0E085E001900D928150E1F719821A82EB
:1000D0001B821C828AB38E788ABB8BB381678BBBF1
:1000E0004D815E816F81788589850E94C70180E29C
:1000F00093E028EC30E0F9013197F1F70197D9F757
:1001000087B3896087BB8F9A80E690E00E94BE0229
:100110004E010894811C911CBB24CC24DD24EB2CC3
:10012000FF24F401EE0DFF1DA0808B2D0E94E00244
:10013000882319F400E010E006C000E010E0AA20D7
:1001400011F001E010E08B2D0E940803E80CF91C6F
:10015000880F8A29802BF7018083B3940894C11CEF
:10016000D11CF4E0CF16D104D1F68B81833021F479
:1001700082E00E94D4031B828C81833019F40E9498
:10018000D4031C828A81833021F481E00E94D4034D
:100190001A828981833009F0BFCF80E00E94D403A6
:1001A0001982BACF482F80FF13C0E0915702F09117
:1001B0005802308120915A022695277081E090E004
:1001C00002C0880F991F2A95E2F7382B308313C09D
:1001D000E0915702F0915802308120915A02269501
:1001E000277081E090E002C0880F991F2A95E2F7FE
:1001F00080958323808341FF13C0E0915702F091E3
:100200005802308120915A022295277081E090E0B7
:1002100002C0880F991F2A95E2F7382B308313C04C
:10022000E0915702F0915802308120915A022295B4
:10023000277081E090E002C0880F991F2A95E2F7AD
:1002400080958323808342FF19C0E0915702F0918B
:100250005802308180915A02881F8827881F209178
:100260005B022370220F282B81E090E002C0880FF0
:10027000991F2A95E2F7382B308319C0E091570275
:10028000F0915802308180915A02881F8827881F78
:1002900020915B022370220F282B81E090E002C0A6
:1002A000880F991F2A95E2F780958323808343FF67
:1002B00014C0E0915702F0915802308120915B0206
:1002C00026952695277081E090E002C0880F991F3F
:1002D0002A95E2F7382B30830895E0915702F09188
:1002E0005802308120915B0226952695277081E087
:1002F00090E002C0880F991F2A95E2F7809583232A
:10030000808308950F931F93E0915702F091580254
:10031000908120915902277001E010E0A80102C0ED
:10032000440F551F2A95E2F79A012095292320832F
:100330000E94D200E0915702F091580220818091F2
:1003400059028695869586958770A80102C0440F4C
:10035000551F8A95E2F7242B208380E09DE70197C3
:10036000F1F7E0915702F091580290818091590283
:10037000869586958695877002C0000F111F8A9515
:10038000E2F70095092300831F910F910895DF93F1
:10039000CF9300D000D00F92CDB7DEB749835A83F8
:1003A0006B837C838D83A7E5B2E0FE01319685E007
:1003B00001900D928150E1F780915702909158027F
:1003C0008B33910519F48FEF8ABB12C088339105E6
:1003D00019F48FEF87BB0CC08533910519F48FEFAB
:1003E00084BB06C0C29711F080E041C08FEF81BB93
:1003F00080E293E028EC30E0F9013197F1F70197C2
:10040000D9F783E00E94820180E49CE90197F1F72B
:1004100083E00E94820180E892E028EC30E0F9015C
:100420003197F1F70197D9F783E00E94820182E0CA
:100430000E94820182E00E94820188E00E94820183
:1004400080E00E94820186E00E94820180E00E949A
:1004500082018CE00E94820180E00E94820181E0A2
:100460000E94820180E197E20197F1F781E00F900D
:100470000F900F900F900F90CF91DF910895DF9222
:10048000EF92FF920F931F93D82EE0915702F091B5
:100490005802208180915902877001E010E0A80184
:1004A00002C0440F551F8A95E2F7242B20838D2D1F
:1004B00082958F700E94D200E0915702F09158020D
:1004C0002081809159028695869586958770A8012E
:1004D00002C0440F551F8A95E2F7242B208380E445
:1004E000E82E81E0F82EC7010197F1F7E09157025D
:1004F000F0915802208180915902869586958695C3
:100500008770A80102C0440F551F8A95E2F7CA01FF
:100510008095822380838D2D8F700E94D200E09180
:100520005702F09158022081809159028695869554
:1005300086958770A80102C0440F551F8A95E2F77F
:10054000242B2083C7010197F1F7E0915702F09126
:10055000580290818091590286958695869587707C
:1005600002C0000F111F8A95E2F70095092300834E
:100570001F910F91FF90EF90DF900895CF93DF933D
:10058000EC0102C00E943F0289918823D9F7DF91D4
:10059000CF910895CF93DF93EC010CC08A3039F4EA
:1005A0008CE00E94820180E00E94820102C00E94D1
:1005B0003F0221968881882389F7DF91CF910895A2
:1005C000A82FB0E0FD01EE5AFD4F118220E0FD01A1
:1005D000E958FF4F40EA5FE004C0CA010197F1F714
:1005E000232F243160F489B3322F3F5F90E00080E5
:1005F00002C0959587950A94E2F780FFEECFAE5A38
:10060000BD4F11962C9380E0243109F481E00895C8
:10061000A82FB0E0FD01EE5AFD4F118220E0FD0150
:10062000E958FF4F40EA5FE004C0CA010197F1F7C3
:10063000232F243160F489B3322F3F5F90E0008094
:1006400002C0959587950A94E2F780FDEECFAE5AE9
:10065000BD4F11962C9380E0243109F481E0089578
:1006600008958FEA91E09093500280934F0208958D
:1006700089EB91E09093500280934F02089583ECB0
:1006800091E09093500280934F02089581EE91E0A3
:100690009093500280934F020895C09A8FEF91E09B
:1006A0009093500280934F020895C39A97988FEFCA
:1006B00091E09093500280934F020895C398979AC7
:1006C00089E092E09093500280934F020895C3987E
:1006D000979883E192E09093500280934F0208959F
:1006E000C39A979A8DE192E09093500280934F02C3
:1006F000089587E292E09093500280934F0208950C
:1007000081E392E09093500280934F02089585E434
:1007100092E09093500280934F02089580E00E94EF
:10072000820181E00E94820180E197E20197F1F766
:100730008BE790E00E94CA0280E29EE428EC30E061
:10074000F9013197F1F70197D9F780E00E94820112
:1007500081E00E94820180E197E20197F1F7E09148
:100760004F02F0915002808191810E94CA02089547
:1007700080E00E94820181E00E94820180E197E294
:100780000197F1F784EF91E028EC30E0F90131971F
:10079000F1F70197D9F7E0914F02F0915002808173
:1007A00091810E94CA020895823039F4E0914F028B
:1007B000F09150028085918508C0833059F4E09112
:1007C0004F02F0915002868197819093500280935E
:1007D0004F0214C0882329F4E0914F02F091500297
:1007E00009C0E0914F02F0915002813019F48481E8
:1007F0009581EBCF0280F381E02D09950E94B8032B
:060800000895F894FFCFFB
:10080600456C657661746F722050726F6A656374A9
:100816002100350066A70000060405507265737353
:10082600206261636B0A20746F2072657475726E44
:1008360021210050726573732073656C65637420A3
:100846000A746F2073746172742021210041626FF3
:100856007574202E2E00446576656C6F7065642075
:100866006279202E2E00417574686F723A0A4162D1
:1008760064616C6C61682048656C616C002053573C
:1008860020332E31312048572056322E3000486111
:100896007264776172652056657273696F6E0A5667
:1008A600322E300056657273696F6E20322E3020FC
:1008B60000536F6674776172652056657273696F4F
:1008C6006E0A56312E31004D6F746F7220436F6E73
:1008D60074726F6C202E2E005475726E204C6566F5
:1008E60074005475726E205269676874005475728C
:1008F6006E204F4646005475726E20626F746820F3
:100906004F4E005265616420566F6C7461676520B6
:100916002E2E00526561642043757272656E7420D6
:100926002E2E00456C657661746F72202E2E005453
:100936006F20426520646566696E6564200A6C6195
:10094600746572210093003103A501A501A501ADCF
:10095600003803A501F5013B02B6003F03AF01D7FE
:1009660001EB01C6008E03B901CD01CD01DD008E7C
:1009760003B901C301C301EE004603AF01EB01B9A0
:100986000104018E03D701E101E10111018E03AFDC
:1009960001B901D70127014D03A5012702AF01388F
:1009A600015503F50109021D0242015E03F501131B
:1009B60002FF014D016703F5011D02090256017090
:1009C60003F501FF01130263017903A5013102F565
:1009D6000173018003A5013B02270283018703A55A
:1009E60001AF0131028F018E033B0245024502A58C
:0209F6000100FE
:00000001FF
