:100000000C942A000C9447000C9447000C94470071
:100010000C9447000C9447000C9447000C94470044
:100020000C9447000C9447000C9447000C94470034
:100030000C9447000C9447000C9447000C94470024
:100040000C9447000C9447000C9447000C94470014
:100050000C94470011241FBECFE5D8E0DEBFCDBF12
:1000600010E0A0E6B0E0E2E8F5E002C005900D92F5
:10007000A839B107D9F710E0A8E9B0E001C01D9296
:10008000AD39B107E1F70E9449000C94BF020C940E
:100090000000DF93CF9300D000D00F92CDB7DEB732
:1000A000DE011196E2E9F0E085E001900D928150C9
:1000B000E1F71ABA8FEF8BBB49815A816B817C8142
:1000C0008D810E94B40180E293E028EC30E0F901D8
:1000D0003197F1F70197D9F787B3896087BB8F9A7A
:1000E00080E690E00E94A702C899FECF80E00E94BF
:1000F0006F0181E00E946F0180ED97E028EC30E015
:10010000F9013197F1F70197D9F782E790E00E9462
:10011000A702C098C398979880E197E228EC30E056
:10012000F9013197F1F70197D9F7C09AC39A9798D7
:10013000C899FECF80E00E946F0181E00E946F01AC
:1001400080ED97E028EC30E0F9013197F1F7019765
:10015000D9F782E890E00E94A702C098C3989798C8
:1001600080E197E228EC30E0F9013197F1F701974F
:10017000D9F7C09AC398979AC899FECFB7CF482F9E
:1001800080FF13C0E0919800F09199003081209198
:100190009B002695277081E090E002C0880F991F90
:1001A0002A95E2F7382B308313C0E0919800F09144
:1001B0009900308120919B002695277081E090E086
:1001C00002C0880F991F2A95E2F7809583238083C8
:1001D00041FF13C0E0919800F09199003081209187
:1001E0009B002295277081E090E002C0880F991F44
:1001F0002A95E2F7382B308313C0E0919800F091F4
:100200009900308120919B002295277081E090E039
:1002100002C0880F991F2A95E2F780958323808377
:1002200042FF19C0E0919800F091990030818091CF
:100230009B00881F8827881F20919C002370220F15
:10024000282B81E090E002C0880F991F2A95E2F7E1
:10025000382B308319C0E0919800F09199003081DB
:1002600080919B00881F8827881F20919C00237005
:10027000220F282B81E090E002C0880F991F2A9559
:10028000E2F780958323808343FF14C0E0919800B8
:10029000F0919900308120919C0026952695277039
:1002A00081E090E002C0880F991F2A95E2F7382B71
:1002B00030830895E0919800F09199003081209169
:1002C0009C0026952695277081E090E002C0880F5B
:1002D000991F2A95E2F780958323808308950F93D1
:1002E0001F93E0919800F0919900908120919A00DD
:1002F000277001E010E0A80102C0440F551F2A95A5
:10030000E2F79A012095292320830E94BF00E09103
:100310009800F0919900208180919A0086958695A9
:1003200086958770A80102C0440F551F8A95E2F791
:10033000242B208380E09DE70197F1F7E09198005E
:10034000F0919900908180919A0086958695869586
:10035000877002C0000F111F8A95E2F700950923EC
:1003600000831F910F910895DF93CF9300D000D0A9
:100370000F92CDB7DEB749835A836B837C838D831D
:10038000A8E9B0E0FE01319685E001900D92815020
:10039000E1F780919800909199008B33910519F4C1
:1003A0008FEF8ABB12C08833910519F48FEF87BB9A
:1003B0000CC08533910519F48FEF84BB06C0C2973A
:1003C00011F080E03DC08FEF81BB80E293E028EC2C
:1003D00030E0F9013197F1F70197D9F783E00E94F6
:1003E0006F0180E49CE90197F1F783E00E946F01BF
:1003F00080E892E028EC30E0F9013197F1F70197BD
:10040000D9F783E00E946F0182E00E946F0182E0D1
:100410000E946F0188E00E946F0180E00E946F01DE
:1004200086E00E946F0180E00E946F018CE00E94D4
:100430006F0180E00E946F0181E00E946F0181E006
:100440000F900F900F900F900F90CF91DF91089524
:10045000DF92EF92FF920F931F93D82EE0919800B6
:10046000F0919900208180919A00877001E010E05E
:10047000A80102C0440F551F8A95E2F7242B208360
:100480008D2D82958F700E94BF00E0919800F091B1
:100490009900208180919A0086958695869587702F
:1004A000A80102C0440F551F8A95E2F7242B208330
:1004B00080E4E82E81E0F82EC7010197F1F7E09182
:1004C0009800F0919900208180919A0086958695F8
:1004D00086958770A80102C0440F551F8A95E2F7E0
:1004E000CA018095822380838D2D8F700E94BF006A
:1004F000E0919800F0919900208180919A00869572
:10050000869586958770A80102C0440F551F8A956D
:10051000E2F7242B2083C7010197F1F7E0919800BF
:10052000F0919900908180919A00869586958695A4
:10053000877002C0000F111F8A95E2F7009509230A
:1005400000831F910F91FF90EF90DF900895CF935C
:10055000DF93EC0102C00E94280289918823D9F719
:10056000DF91CF910895CF93DF93EC0102C00E94F9
:10057000280289918823D9F7DF91CF910895F894C3
:02058000FFCFAB
:10058200456C657661746F722050726F6A65637430
:100592002100465720446972656374696F6E202199
:1005A2002100425720446972656374696F6E20218D
:0805B2002100350066A70000DE
:00000001FF
