:100000000C942A000C9447000C9447000C94470071
:100010000C9447000C9447000C9447000C94470044
:100020000C9447000C9447000C9447000C94470034
:100030000C9447000C9447000C9447000C94470024
:100040000C9447000C9447000C9447000C94470014
:100050000C94470011241FBECFE5D8E0DEBFCDBF12
:1000600010E0A0E6B0E0EEE4F5E002C005900D92ED
:10007000A039B107D9F710E0A0E9B0E001C01D92A6
:10008000A539B107E1F70E9449000C94A5020C9430
:100090000000EF92FF920F931F93DF93CF9300D056
:1000A00000D00F92CDB7DEB7DE011196EBE8F0E09D
:1000B00085E001900D928150E1F71ABA49815A8189
:1000C0006B817C818D810E949A0180E293E028EC13
:1000D00030E0F9013197F1F70197D9F780E690E028
:1000E0000E948D028FEF87BB81BB88B3896088BB7C
:1000F000979880E008EC10E090E2E92E9EE4F92E5B
:10010000C89981608130E1F780E00E94550181E06B
:100110000E94550180E293E0F8013197F1F70197D1
:10012000D9F785E790E00E948D02C09880E49CE9B1
:10013000F8013197F1F70197D9F7C09AC398979AC8
:10014000C7010197F1F783E0DBCF482F80FF13C091
:10015000E0919000F09191003081209193002695DC
:10016000277081E090E002C0880F991F2A95E2F77E
:10017000382B308313C0E0919000F09191003081D2
:10018000209193002695277081E090E002C0880FAF
:10019000991F2A95E2F780958323808341FF13C03E
:1001A000E0919000F0919100308120919300229590
:1001B000277081E090E002C0880F991F2A95E2F72E
:1001C000382B308313C0E0919000F0919100308182
:1001D000209193002295277081E090E002C0880F63
:1001E000991F2A95E2F780958323808342FF19C0E7
:1001F000E0919000F0919100308180919300881FF0
:100200008827881F209194002370220F282B81E0DB
:1002100090E002C0880F991F2A95E2F7382B3083AF
:1002200019C0E0919000F09191003081809193008D
:10023000881F8827881F209194002370220F282B65
:1002400081E090E002C0880F991F2A95E2F780951F
:100250008323808343FF14C0E0919000F0919100CC
:1002600030812091940026952695277081E090E0BA
:1002700002C0880F991F2A95E2F7382B3083089522
:10028000E0919000F09191003081209194002695AA
:100290002695277081E090E002C0880F991F2A956B
:1002A000E2F780958323808308950F931F93E09155
:1002B0009000F0919100908120919200277001E0D0
:1002C00010E0A80102C0440F551F2A95E2F79A01D9
:1002D0002095292320830E94A500E0919000F091B1
:1002E00091002081809192008695869586958770F1
:1002F000A80102C0440F551F8A95E2F7242B2083E2
:1003000080E09DE70197F1F7E0919000F091910076
:10031000908180919200869586958695877002C01F
:10032000000F111F8A95E2F70095092300831F91A2
:100330000F910895DF93CF9300D000D00F92CDB7E7
:10034000DEB749835A836B837C838D83A0E9B0E059
:10035000FE01319685E001900D928150E1F7809188
:100360009000909191008B33910519F48FEF8ABB27
:1003700012C08833910519F48FEF87BB0CC0853309
:10038000910519F48FEF84BB06C0C29711F080E08D
:100390003DC08FEF81BB80E293E028EC30E0F901B3
:1003A0003197F1F70197D9F783E00E94550180E476
:1003B0009CE90197F1F783E00E94550180E892E003
:1003C00028EC30E0F9013197F1F70197D9F783E094
:1003D0000E94550182E00E94550182E00E94550171
:1003E00088E00E94550180E00E94550186E00E944D
:1003F000550180E00E9455018CE00E94550180E08B
:100400000E94550181E00E94550181E00F900F90FC
:100410000F900F900F90CF91DF910895DF92EF92A0
:10042000FF920F931F93D82EE0919000F0919100CE
:10043000208180919200877001E010E0A80102C045
:10044000440F551F8A95E2F7242B20838D2D82952A
:100450008F700E94A500E0919000F09191002081A2
:10046000809192008695869586958770A80102C036
:10047000440F551F8A95E2F7242B208380E4E82E51
:1004800081E0F82EC7010197F1F7E0919000F0911B
:10049000910020818091920086958695869587703F
:1004A000A80102C0440F551F8A95E2F7CA01809542
:1004B000822380838D2D8F700E94A500E091900093
:1004C000F091910020818091920086958695869585
:1004D0008770A80102C0440F551F8A95E2F7242BAC
:1004E0002083C7010197F1F7E0919000F09191000E
:1004F000908180919200869586958695877002C03E
:10050000000F111F8A95E2F70095092300831F91C0
:100510000F91FF90EF90DF900895CF93DF93EC0160
:1005200002C00E940E0289918823D9F7DF91CF91F2
:100530000895CF93DF93EC0102C00E940E028991CF
:0E0540008823D9F7DF91CF910895F894FFCF6B
:10054E00466F727761726420446972656374696F75
:10055E006E202121004261636B77617264204469D1
:10056E0072656374696F6E20212100350066A700E5
:00000001FF
